:400000000080002011000000190400001904000008B5044B1A6803F53F5302331A6000F003FA00BFFA46004010B5054C237833B9044B13B10448AFF300800123237010BD40
:400040004881FF1F0000000070100000084B10B51BB108490848AFF300800848036803B910BD074B002BFBD0BDE81040184700BF000000004C81FF1F70100000C880FF1F02
:400080000000000008B500F045FD00F057FD08BD08B5002000F05AFD00F070FD80B208BD08B5012000F052FD012802D100F066FF08BD002000F062FF08BD00BF10B562B6CB
:4000C000FFF7E0FF00F02CF8134B1B68B3F5007F0BDA114B1C68621C1A60FFF7D9FF0F4B23F81400FFF7DCFFEEE700F031F800240AE00A4B33F8140080B200F015F810B9A2
:4001000000F03CFF03E00134B4F5007FF1DB0022014B1A60D8E700BF6481FF1F8481FF1F08B500F0C7FD08BD10B5044600F06EFD10F0020FFAD0204600F074FD00F066FD67
:4001400010F0010FFAD000F061FD00F0010010BD08B54FF6FF70FFF7E7FF052000F0C2FE08BD00BFFEE700BFF0B40022174611E050F82760F3B226F0FF0608E001EB420591
:4001800011F812406D78A5550132013BDBB2002BF4D10137122FEBD9F0BC70470A4B1B78DBB203F00701094A11701B09013213700122074B1A70102203F6F3131A7044223B
:4001C000A3F28A231A707047CF0100496E5800400D51004008B50A46002100F040FF08BD08B500F031FF08BD38B500242F4B1C80502202331A70052202331A80182202333E
:400200001A7004222A492B48FFF7EAFF02222A4B1A7008224FF040231A70032103F500731970264B1B78DBB225490B70254B1A8041F25122023B1A8019250CE0224B1B788D
:4002400003F0010343EA440404F003044FF4F07000F0BEFE013D0DB1032CEFD115B90320FFF780FF194B4FF480721A8007221A70002217490A704820023108701A700222D4
:40028000033B1A7004220A331A70124A137843F003031370013A137843F001031370013A137843F08003137038BD00BF804000406C020048004100400043004008010049A7
:4002C000A146004022420040254200400440004006400040A2430040012807D8044B53F820201844017A13780B431370704700BF74100000012808D8044B53F8202018440F
:40030000017A137823EA0103137070477410000038B572B62E4A137843F00403137000240BE02C4863001A19510001440A46098AD068FFF74FFF0134E4B2062CF1D92649CF
:400340004FF09040FFF710FF0A22244B1A70244A137843F0020313701032137843F002031370204C237843F040032370A2F58632513A137843F01003137008221A491B48DA
:40038000FFF72EFF08221A491A48FFF729FF082219491A48FFF724FF082219491948FFF71FFF194A137843F008031370174D61232B70FFF719FF81232B700122144B1A707A
:4003C000FFF7ECFE0E2221461248FFF709FF38BDE8460040741000004C0000488358004003500140A04300404C0200480251004054020048F25100405C020048125100404E
:400400006402004822510040224300400048004004000840B043004008B500F0E9FD03680C2B00D1FEE7FEE708B5104E104D16E029686B68AC68002204E051F8040B43F860
:40044000040B0432A242F8D1E868002203E0002143F8041B04328242F9D11035013E002EE6D100F0CBFDFFF729FEFEE701000000D010000008B5104A104B1A60104A136831
:4004800043F40073136000230AE0032B03D80D4A52F8231000E00C490C4A42F8231001332F2BF2D90A4B1A780A4B1A70074A0A4B1A60FFF72DFF08BD0004FA050CED00E03B
:4004C00014ED00E000000000190400000080FF1FBC760040C080FF1F08ED00E038B59DF81040651EEDB2032D51D8013809282ED8DFE800F0052D2D052D2D0F192D230F2BD7
:4005000003D92548007840B222E02448007840B21EE00F2B03D92248007840B218E02148007840B214E00F2B03D91F48007840B20EE01E48007840B20AE00F2B03D91C4880
:40054000007840B204E01B48007840B200E0002001EB401101FB02F2D20B91B20D2B0BD8C3F10E0192B20A4191B2621E124800EB82020133937005E0631E0F4A02EB8303B1
:400580000F229A70013C0C4B23F8241038BD002000F0A6FC38BD00BF180100491C010049190100491D0100491A0100491E0100491B0100491F0100496881FF1FF8B5074695
:4005C00000F00EFD06460D4D2B7843F003032B700B4C237843F0030323700A4B1F70032000F096FC2B7803F0FC032B70237803F0FC032370304600F0F7FCF8BDF8460040C0
:40060000F946004092580040F8B504460022C14B1A7401285DD13822BF4B1A70042202331A70062201331A70002501331D7001331D703F2201331A7002331D7001331D7005
:4006400001331D7001260A331E70502203F527631A70272201331A702C2201331A7001331D70552203331A705A2201331A70052701331F7002331E70112201331A70192226
:4006800001331A70972201331A704420FFF796FF5822A24B1A7001331D7005331F70022201331A7001331D7001331D70284600F081FC4FF47A429A4B1A603146384600F01B
:4006C0001FFB3146252000F09FFB96491D2000F029FC022C5DD138228F4B1A70042202331A70062201331A70002501331D7001331D703F2201331A7002331D7001331D703B
:4007000001331D7001260A331E70502203F527631A70272201331A702C2201331A7001331D70552203331A705A2201331A70052701331F7002331E70112201331A70192265
:4007400001331A70972201331A704420FFF736FF5822724B1A7001331D7005331F70022201331A7001331D7001331D70284600F021FC4FF47A426A4B1A603146384600F07A
:40078000BFFA3146252000F03FFB67491D2000F0C9FB032C5DD138225F4B1A70042202331A70062201331A70002501331D7001331D703F2201331A7002331D7001331D70FA
:4007C00001331D7001260A331E70502203F527631A70272201331A702C2201331A7001331D70552203331A705A2201331A70052701331F7002331E70112201331A701922A5
:4008000001331A70972201331A704420FFF7D6FE5822424B1A7001331D7005331F70022201331A7001331D7001331D70284600F0C1FB4FF47A423A4B1A603146384600F0DB
:400840005FFA3146252000F0DFFA38491D2000F069FB042C5DD138222F4B1A70042202331A70062201331A70002401331C7001331C703F2201331A7002331C7001331C70BD
:4008800001331C7001250A331D70502203F527631A70272201331A702C2201331A7001331C70552203331A705A2201331A70052601331E7002331D70112201331A701922EB
:4008C00001331A70972201331A704420FFF776FE5822124B1A7001331C7005331E70022201331A7001331C7001331C70204600F061FB4FF47A420A4B1A602946304600F057
:40090000FFF92946252000F07FFA09491D2000F009FBF8BD6881FF1F004E0040945800408485FF1FCD0B0000D10B0000D50B0000D90B00002DE9F04182B0394D4FF00108C3
:4009400085F80080374E00247474102000F0C6F9102000F047FA07211D2000F0F7FA0427314B1F7001331C7007331C702F4A137843F0180313702E4B1C7003F2F5231C7034
:4009800001331C700A22A3F209331A7001331C7002331C705B2205331A705E2201331A7004331C701422A3F68C231A70CDF8008010234FF4004249F2DA012046FFF78EFD2D
:4009C0000223009310234FF4004249F2DA012046FFF784FD0323009310234FF4004249F2DA012046FFF77AFD009710234FF4004249F2DA012046FFF771FD2B78013B06EB3B
:400A000083039A780B4B1A702B78013B36F82320094B1A802878FFF7F7FD02B0BDE8F081CC80FF1F6881FF1F96580040075B0040935800400E4E00400C4E004070B500F0F7
:400A4000CFFA06462A4B1B782A4B1A7842F001021A701A7842F010021A7010331A7842F001021A701A7842F010021A70224D2B7843F002032B70214C237843F00203237087
:400A80001F4A137843F003031370032000F040FA2B7803F0FD032B70237803F0FD032370184A137843F0060313707A22164B1A70164A137843F0010313701032137843F00F
:400AC000010313700F3A137843F0010313701032137843F0010313704FF000530C4A1360A2F5C0721360304600F07EFA70BD00BFCC80FF1FAA430040F8460040F946004065
:400B0000915800407758004082580040A143004080E200E008B5084B9B7C4BB9064BDB7C13F0FF0F01D1FFF705FF0122024B9A74FFF784FF08BD00BF6881FF1F024A1378F4
:400B400043F0010313707047004E0040094B1B7C13F0FF0F03D0074B5B7CDBB203E0064B1B7803F00103012B01D00028EED01846704700BF6881FF1F014E00400E4B1B78FA
:400B800003F00303012B03D80C4B188880B209E00A4A12780A49087842EA0020032B01D1084B1B78084B1B7C13F0FF0F02D00022054B5A7400B27047144E0040104E00408A
:400BC000114E0040124E00406881FF1F704700BF704700BF704700BF704700BF08B500F0FFF9094A137843F0200313700232137843F010031370013A137843F01003137064
:400C000000F0F2F908BD00BF9A640040014B1878704700BF6C640040014B1878704700BF6B640040034B1B7813F0020FFAD0024B188070476C6400404A64004008B501E05D
:400C40000E4B1B880E4B1B7813F0080FF8D100F0C7F90C4B1A7842F003021A701A7802F0FC021A7001331A7842F003021A701A7802F0FC021A7000F0B7F908BD5A6400404D
:400C80006B6400409A64004008B50F22074B1A70FFF7D4FFFFF7BAFFFFF7BEFF0222044B1A700822013B1A7008BD00BF8A6400408C64004008B5054B1B7823B9FFF7E4FFCE
:400CC0000122024B1A70FFF789FF08BD8081FF1F014B188880B2704780400040034B1A7800F0F80010431870704700BF82400040024B187800F00700704700BF824000405C
:400D000070B505460E46FFF7F3FF0446FFF7E0FFA84256D02B4B1B7803F0010294B900B185B938B9284B1D80284A137803F0BF03137070BD254A137843F040031370224BDA
:400D40001D8070BD22B3002321490B7001240F310C7004310B700C390B7803F07F030B701A4B1B7813F0080F00D08DB9194B18800721013B1970164B1B7813F0010FFAD1A0
:400D800010490B7803F0FE030B700021104B19700C4B1B7813F0010F0DD00E4B1D800EB1032200E001220A4B1A70094B1B7813F0010FFAD170BD044B1D8002490B7813434B
:400DC0000B7070BDA243004080400040824000400140004002400040014B188880B2704700410040034B1A7800F0F80010431870704700BF02410040024B187800F007005B
:400E0000704700BF0241004070B505460E46FFF7F3FF0446FFF7E0FFA84256D02B4B1B7803F0010294B900B185B938B9284B1D80284A137803F0BF03137070BD254A137846
:400E400043F040031370224B1D8070BD22B3002321490B70012413310C7004390B7008390B7803F07F030B701A4B1B7813F0080F00D08DB9194B18800721013B1970164BA2
:400E80001B7813F0010FFAD110490B7803F0FE030B700021104B19700C4B1B7813F0010F0DD00E4B1D800EB1032200E001220A4B1A70094B1B7813F0010FFAD170BD044B9A
:400EC0001D8002490B7813430B7070BDA14300400041004002410040014000400240004001BE704710B5044605E0084B186800F06FF8A4F50044B4F5004FF6D8034B586819
:400F000000FB04F000F064F810BD00BFD080FF1F08B5034B1B7A00FB03F000F059F808BDD080FF1F70B504460E46074B1D681F2802D90020FFF7D4FF04F01F04103455F82D
:400F4000240045F8246070BD08ED00E038B504460D46072902D90020FFF7C2FF1F2C02D90020FFF7BDFF04F01F0000F1604000F564406D01EDB2057038BD00BF044A1378DA
:400F800003F0FD03400000F002001843107070472051004010B5002404E02046FFF7AAF90134E4B2012CF8D9FF22014B1A7010BDE080FF1F10B50446FFF7ECFF2046FFF7A6
:400FC0008BF9014B1C7010BDE080FF1F000000000230800803D000BF01380046FCD17047EFF3108072B6704780F31088704700BF014B1868704700BF4481FF1F0E4B70B586
:401000001E460E4C0025E41AA410A54204D056F8253098470135F8E700F048F8084B094C1E46E41AA4100025A54204D056F8253098470135F8E770BDB8100000B8100000A7
:40104000B8100000C010000010B5431E0A44914204D011F8014B03F8014FF8E710BD03460244934202D003F8011BFAE77047000000000000035B0040244300404000000007
:40108000305100404000C0510040100000000140001000140140000800400140000A004C014000020050014020004300F8B500BFF8BC08BC9E4670474D00000075040000CD
:4010C000F8B500BFF8BC08BC9E46704729000000E0100000C880FF1F800000004004000000000000010000000000E02EC05D00001800000000366E01FF0000000000000046
:4011000000000000000000000000000000000000000000000000000000000000AA1000000000000000000000000000000000000000000000000000000000000000000000F5
:4011400000000000000000000000000000000000000000000000000000000000E480FF1F0000000000000000000000000000000000000000000000000000000000000000ED
:40118000000000000000000000000000000000000000000000000000000000000000000000000000000000000000000000000000000000000000000000000000000000002F
:4011C00000000000000000000000000000000000000000000000000000000000000000000000000000000000000000000000000000000000000000000000000000000000EF
:4012000000000000000000000000000000000000000000000000000000000000000000000000000000000000000000000000000000000000000000000000000000000000AE
:40124000000000000000000000000000000000000000000000000000000000000000000000000000000000000000000000000000000000000000000000000000000000006E
:020000040003F7
:0200000480007A
:400000000152004003640040040901404C0A0140380B0140270C0140260D01400115014002190140041B0140024401400245014007460140024701400248014001490140E5
:40004000064C0140064D01400350014009408A0F8B788C4790409CA0AF20EE080A1E13021E212001220224012503260428012A082C102E01310232203501361F3E403F1160
:40008000400641024260440549FF4AFF4BFF4C024E704F0C508C511056025724580459045A245B245C085D885E085F21684069016AC06B019801B001B902BE01BF01C004A5
:4000C000C102C240C405C5CEC60DC7BFC837C9FFCAFFCBFFCC23CEF0CF0CD08CD110D420D804D904DA24DB04DD18DF21E840E901EAC0EB01001008400F0810AA1810194096
:400100001B401F01204021202780282033023630412045204702480449404E604F805540560457065F0161206608670A68AA78807B207F20820483018840930896809A0843
:400140009B029F80A004A4AAA540A610B010B180C002C241C40FCA02CC01D0A4D21CD680D874DE4A10051E011F01220824082A07300232083404350136013E545441580479
:4001800059045B045C115D105F019301950199019D019E01A001A401A801AE01B001B501B701BE01BF50D608D804D904DB04DD10DF0109C00E400F0210AA148016041704CF
:4001C00019011E401F542008230A270430AA34803A083B044BC0581059015A805B085D085E205F406080614062046306672083808948C291C47FCC1FD67FD84FE001EC1074
:4002000090409CA0A840B080B420EC147D20DE018110A5100380050845088B80C00CD001E201A508AD082510C820B5100C100E086308A508C201D802AB04B010B508B6048B
:40024000EA06EC0800020C020E02000000000000000001003000000000000000804B4B004000000000020200000000002500180100000000000000000000000000000000B1
:40028000000000000000000000000000000000000000000000000000000000000000000000000000000000000000000000000000000000000000000000000000000000003E
:4002C00000000000000000000000000000000000000000000000000000000000000000000000000000000000000000000000000000000000000000000000000000000000FE
:4003000000000000000000000000000000000000000000000000000000000000000000000000000000000000000000000000000000000000000000000000000000000000BD
:40034000000000000000000000000000000000000000000000000000000000000000000000000000000000000000000000000000000000000000000000000000000000007D
:0200000490006A
:0400000000004005B7
:0200000490105A
:04000000BC90ACAF55
:0200000490303A
:0200000033BF0C
:0200000490402A
:4000000000000000000000000000000000000000000000000000000000000000000000000000000000000000000000000000000000000000000000000000000000000000C0
:400040000000000000000000000000000000000000000000000000000000000000000000000000000000000000000000000000000000000000000000000000000000000080
:400080000000000000000000000000000000000000000000000000000000000000000000000000000000000000000000000000000000000000000000000000000000000040
:4000C0000000000000000000000000000000000000000000000000000000000000000000000000000000000000000000000000000000000000000000000000000000000000
:0200000490501A
:0C00000000012E16106900012E1C44287F
:00000001FF